:0400000007EF00F016
:0A0008006F820BED08F0D2EF0DF04F
:10100000003738392F3435362A3132332D23303DED
:051010002B2569000022
:101016000600FACF66F0FBCF67F0D9CF68F0DACFDB
:1010260069F0F3CF6AF0F4CF6BF0F2A81DEF08F089
:101036001FEF08F028EF08F0F2A224EF08F026EFE1
:1010460008F028EF08F078EC0FF0F0A62DEF08F086
:101056002FEF08F038EF08F0F0A034EF08F036EF85
:1010660008F038EF08F076EC0FF0F0A83DEF08F046
:101076003FEF08F048EF08F0F0A244EF08F046EF23
:1010860008F048EF08F074EC0FF0F2A64DEF08F008
:101096004FEF08F06AEF08F0F2A054EF08F056EFB1
:1010A60008F06AEF08F081A85BEF08F05DEF08F042
:1010B6006AEF08F04C04D8A463EF08F065EF08F077
:1010C6006AEF08F0000E4C6E010E55EC0FF0F2A61A
:1010D6006FEF08F071EF08F08CEF08F0F2A076EFF2
:1010E60008F078EF08F08CEF08F081B87DEF08F093
:1010F6007FEF08F08CEF08F04C50D8A485EF08F08D
:1011060087EF08F08CEF08F0010E4C6E000E55ECE0
:101116000FF0F2A691EF08F093EF08F0AEEF08F0AB
:10112600F2A098EF08F09AEF08F0AEEF08F081AA67
:101136009FEF08F0A1EF08F0AEEF08F04B04D8A43B
:10114600A7EF08F0A9EF08F0AEEF08F0000E4B6E1F
:10115600010E48EC0FF0F2A6B3EF08F0B5EF08F079
:10116600D0EF08F0F2A0BAEF08F0BCEF08F0D0EF2D
:1011760008F081BAC1EF08F0C3EF08F0D0EF08F02D
:101186004B50D8A4C9EF08F0CBEF08F0D0EF08F029
:10119600010E4B6E000E48EC0FF0F2A6D5EF08F0EC
:1011A600D7EF08F0F2EF08F0F2A0DCEF08F0DEEF80
:1011B60008F0F2EF08F081ACE3EF08F0E5EF08F095
:1011C600F2EF08F04A04D8A4EBEF08F0EDEF08F0D0
:1011D600F2EF08F0000E4A6E010E3BEC0FF0F2A69D
:1011E600F7EF08F0F9EF08F014EF09F0F2A0FEEFC0
:1011F60008F000EF09F014EF09F081BC05EF09F0E3
:1012060007EF09F014EF09F04A50D8A40DEF09F0E2
:101216000FEF09F014EF09F0010E4A6E000E3BECD9
:101226000FF0F2A619EF09F01BEF09F036EF09F0FF
:10123600F2A020EF09F022EF09F036EF09F081AEB7
:1012460027EF09F029EF09F036EF09F04904D8A491
:101256002FEF09F031EF09F036EF09F0000E496E75
:10126600010E2EEC0FF0F2A63BEF09F03DEF09F070
:1012760058EF09F0F2A042EF09F044EF09F058EFF9
:1012860009F081BE49EF09F04BEF09F058EF09F07C
:101296004950D8A451EF09F053EF09F058EF09F07F
:1012A600010E496E000E2EEC0FF09DAC5DEF09F0BD
:1012B6005FEF09F068EF09F09EAC64EF09F066EFA6
:1012C60009F068EF09F07AEC0FF0F2AA6DEF09F079
:1012D6006FEF09F078EF09F0F2A474EF09F076EFFA
:1012E60009F078EF09F09EEC0EF09DA07DEF09F075
:1012F6007FEF09F088EF09F09EA084EF09F086EFF2
:1013060009F088EF09F083EC0EF09DA28DEF09F04D
:101316008FEF09F098EF09F09EA294EF09F096EF8F
:1013260009F098EF09F0B9EC0EF0A0A29DEF09F0D4
:101336009FEF09F0A8EF09F0A1A2A4EF09F0A6EF2C
:1013460009F0A8EF09F068EC0EF06BC0F4FF6AC074
:10135600F3FF69C0DAFF68C0D9FF67C0FBFF66C04C
:10136600FAFF6F9211006C50D8A4BCEF09F0BEEFE3
:1013760009F0C0EF09F06BEF0AF0CD906C50D96E12
:10138600DA6A050ED926DF50030B6D6E6D3ACD5025
:101396006D18CF0B6D18CD6E6C50D96EDA6A030ED0
:1013A600D926DECF6DF0DDCF6EF06EC06DF06E6AC1
:1013B6006D50CF6E6C50D96EDA6A030ED926DF50A7
:1013C600CE6E6C50D96EDA6A030ED926DECF09F0DE
:1013D600DDCF0AF06C50D96EDA6A050ED926DFB475
:1013E600F7EF09F0F9EF09F0FCEF09F0CD9227EFDE
:1013F6000AF06C50D96EDA6A050ED926DFA406EF1C
:101406000AF008EF0AF027EF0AF0CD826C50D96E89
:10141600DA6A050ED926DFB813EF0AF015EF0AF0DF
:1014260018EF0AF0CD9427EF0AF06C50D96EDA6AFD
:10143600050ED926DFA822EF0AF024EF0AF027EFDF
:101446000AF0CD8427EF0AF06C50D96EDA6A050EE1
:10145600D926DFA631EF0AF033EF0AF036EF0AF0AD
:10146600CD8E43EF0AF06C50D96EDA6A050ED92696
:10147600DFB640EF0AF042EF0AF043EF0AF0CD9EE6
:101486006C50D96EDA6A050ED926DFAA4DEF0AF03E
:101496004FEF0AF052EF0AF0CD865FEF0AF06C507C
:1014A600D96EDA6A050ED926DFBA5CEF0AF05EEF6E
:1014B6000AF05FEF0AF0CD966C50D96EDA6ADECF8D
:1014C60007F0DDCF08F09D809E90F28EF28CCD80E5
:1014D60012006C50D8A472EF0AF074EF0AF076EF9F
:1014E6000AF005EF0BF0B1906C50D96EDA6A050E72
:1014F600D926DF50030B6D6E6D3AB1506D18CF0BC8
:101506006D18B16E6C50D96EDA6A030ED926DECF2D
:101516006DF0DDCF6EF06EC06DF06E6A6D50B36E1D
:101526006C50D96EDA6A030ED926DF50B26E6C5053
:10153600D96EDA6A030ED926DECF03F0DDCF04F0CA
:101546006C50D96EDA6A050ED926DFB4ADEF0AF013
:10155600AFEF0AF0B2EF0AF0B192DDEF0AF06C508D
:10156600D96EDA6A050ED926DFA4BCEF0AF0BEEF03
:101576000AF0DDEF0AF0B1826C50D96EDA6A050E18
:10158600D926DFB8C9EF0AF0CBEF0AF0CEEF0AF0A2
:10159600B194DDEF0AF06C50D96EDA6A050ED926E1
:1015A600DFA8D8EF0AF0DAEF0AF0DDEF0AF0B1842F
:1015B600DDEF0AF06C50D96EDA6A050ED926DFA681
:1015C600E7EF0AF0E9EF0AF0ECEF0AF0B18EF9EF77
:1015D6000AF06C50D96EDA6A050ED926DFB6F6EF38
:1015E6000AF0F8EF0AF0F9EF0AF0B19E6C50D96EE6
:1015F600DA6ADECF01F0DDCF02F0A082A192F28E90
:10160600F28CB1801200010E6D6E6C50D8B40EEFE4
:101616000BF010EF0BF021EF0BF06C50D96EDA6A7D
:10162600DF30E832E832070B0001976F070E976547
:101636001FEF0BF021EF0BF07AEF0BF0000E6D6E43
:101646009AEF0BF06C50D96EDA6ADF30E832E83286
:10165600070B976F010E986F972B34EF0BF0D8900E
:101666009837972F32EF0BF000019851FF0A996FC8
:101676006C50D96EDA6ADF50070B020DF3503F0F3C
:10168600D96EDA6ADECF9AF0DDCF9BF09AC0D9FF29
:101696009BC0DAFF9951DF169AEF0BF06C50D96EAA
:1016A600DA6ADF30E832E832070B976F010E986F7F
:1016B600972B60EF0BF0D8909837972F5EEF0BF0D3
:1016C6006C50D96EDA6ADF50070B020DF3503F0FEC
:1016D600D96EDA6ADECF99F0DDCF9AF099C0D9FFDC
:1016E6009AC0DAFF00019851DF129AEF0BF06C50A6
:1016F600D96EDA6ADFBC82EF0BF085EF0BF0010ED4
:1017060086EF0BF0000E976F986B9851000AD8B4CD
:101716008FEF0BF021EF0BF09751000AD8B425EFAD
:101726000BF0010AD8B451EF0BF021EF0BF06D501E
:101736001200010E6E6E6C50D8B4A4EF0BF0A6EF3B
:101746000BF0B7EF0BF06C50D96EDA6ADF30E83287
:10175600E832070B0001976F070E9765B5EF0BF0A0
:10176600B7EF0BF010EF0CF0000E6E6E25EF0CF0DD
:101776006C50D96EDA6ADF30E832E832070B976FC1
:10178600010E986F972BCAEF0BF0D8909837972FCA
:10179600C8EF0BF000019851FF0A996F6C50D96E93
:1017A600DA6ADF50070B020DF350350FD96EDA6A8D
:1017B600DECF9AF0DDCF9BF09AC0D9FF9BC0DAFF4F
:1017C6009951DF1625EF0CF06C50D96EDA6ADF30CE
:1017D600E832E832070B976F010E986F972BF6EFFA
:1017E6000BF0D8909837972FF4EF0BF06C50D96E1A
:1017F600DA6ADF50070B020DF350350FD96EDA6A3D
:10180600DECF99F0DDCF9AF099C0D9FF9AC0DAFF02
:1018160000019851DF1225EF0CF06D50976F986B11
:101826009851000AD8B41AEF0CF0B7EF0BF09751A5
:10183600000AD8B4BBEF0BF0010AD8B4E7EF0BF0FF
:10184600B7EF0BF06E501200010E616E5C50D8B40B
:101856002FEF0CF031EF0CF041EF0CF05C50D96E2D
:10186600DA6ADF30E832E832070B5D6E070E5D6438
:101876003FEF0CF041EF0CF045EF0CF0000E616EFF
:101886006BEF0CF05C50D96EDA6ADF30E832E83282
:10189600070B5D6E010E5E6E5D2A54EF0CF0D8905C
:1018A6005E365D2E52EF0CF05C50D96EDA6ADF5070
:1018B600070B020DF350350FD96EDA6ADECF5FF0F3
:1018C600DDCF60F05FC0D9FF60C0DAFF5E50DF1A7F
:1018D600615012006C50D8A473EF0CF075EF0CF049
:1018E60077EF0CF0B0EF0CF0CA946C50D96EDA6A50
:1018F600040ED926DF50030B6D6ECA506D18FC0B13
:101906006D18CA6E6C50D96EDA6A040ED926DF30AD
:10191600E8320F0B6D6E6D466D466D46CA506D18FA
:10192600870B6D18CA6E6C50D96EDA6A030ED9260B
:10193600DF50CC6E6C50D96EDA6A030ED926DF50B2
:10194600276E6C50D96EDA6ADECF05F0DDCF06F071
:101956009D829E92F28EF28CCA8412006E50D8A49A
:10196600B7EF0CF0B9EF0CF0BBEF0CF0F3EF0CF0A7
:10197600D59E6EC06CF0FDEC0DF06EC06CF0F4EC14
:101986000CF06EC06CF04BEC0EF06E50D96EDA6A4D
:10199600030ED926DECF97F0DDCF98F098C097F0EA
:1019A6000001986B9751D76E6E50D96EDA6A030EA6
:1019B600D926DF50D66E6E50D96EDA6A030ED92656
:1019C600DECF0DF0DDCF0EF06E50D96EDA6ADECFC7
:1019D6000BF0DDCF0CF0F28AF294F28EF28CD58EFB
:1019E60012006C50D96EDA6A060ED926DFA2FEEF17
:1019F6000CF000EF0DF003EF0DF0D59A2EEF0DF081
:101A06006C50D96EDA6A060ED926DFB20DEF0DF0EC
:101A16000FEF0DF02EEF0DF0D58A6C50D96EDA6A05
:101A2600060ED926DFB61AEF0DF01CEF0DF01FEFEC
:101A36000DF0D5982EEF0DF06C50D96EDA6A060EC1
:101A4600D926DFB629EF0DF02BEF0DF02EEF0DF0B6
:101A5600D5882EEF0DF01200010E646E6250D8A4E8
:101A660037EF0DF039EF0DF03DEF0DF0000E646E1F
:101A760067EF0DF031C065F06250D96EDA6ADF505B
:101A8600070B636E65506318F80B6318656E62503A
:101A9600D96EDA6ADF30E832E832070B636E6346E6
:101AA6006346634665506318C70B6318656E659C8D
:101AB6006250D96EDA6ADFAC02D0658E01D0659EBF
:101AC600650E5C6E27EC0CF06450120000019F510D
:101AD600D8A470EF0DF072EF0DF074EF0DF09FEFDC
:101AE6000DF034C0A1F09F51D96EDA6ADF50070BB2
:101AF600A06FA151A019F80BA019A16F9F51D96E23
:101B0600DA6ADF30E832E832070BA06FA047A04759
:101B1600A047A151A019C70BA019A16FA19D9F5164
:101B2600D96EDA6ADFAC02D0A18F02D00001A19F84
:101B3600A10E9C6FA0EC0DF0120000019C51D8B4D0
:101B4600A7EF0DF0A9EF0DF0B9EF0DF09C51D96E8E
:101B5600DA6ADF30E832E832070B9D6F070E9D65C3
:101B6600B7EF0DF0B9EF0DF0BDEF0DF0000E9E6F63
:101B7600D0EF0DF09CC06CF006EC0BF000019E6FF0
:101B86009CC06CF09C51D96EDA6A000EDFBE010E65
:101B96006D6E9CEC0BF000019E6F9E511200C40E00
:101BA600F66E1E0EF76E000EF86E00EE80F010EE6A
:101BB60017F00900F5CFEEFFE550E150FAE1A40E6B
:101BC600F66E1D0EF76E000EF86E00EE35F010EE96
:101BD60027F00900F5CFEEFFE550E150FAE100EEFF
:101BE60001F0340EEE6AE806FDE16F906F92000197
:101BF6006EEF0FF06C50D96EDA6A060ED926DFA0AA
:101C060007EF0EF009EF0EF018EF0EF0D5966C50B8
:101C1600D96EDA6A050ED926DF506D6ED5506D186D
:101C2600F80B6D18D56E25EF0EF06C50D96EDA6A8A
:101C3600060ED926DFB022EF0EF024EF0EF025EFC8
:101C46000EF0D58612008A0E6E6EB1EC0CF05B0EAD
:101C560000019F6F69EC0DF04D0E6C6EB6EC09F04D
:101C66005A0E00019F6F69EC0DF0530E6C6E6DEC11
:101C76000CF0590E00019F6F69EC0DF0910E6C6E21
:101C86006CEC0AF0580E00019F6F69EC0DF0120023
:101C96006C50D96EDA6A060ED926DFB455EF0EF00F
:101CA60057EF0EF05AEF0EF0D59C67EF0EF06C5022
:101CB600D96EDA6A060ED926DFA464EF0EF066EF57
:101CC6000EF067EF0EF0D58C1200A1920450B36EA1
:101CD60003C0B2FF01500210D8B474EF0EF076EFD5
:101CE6000EF082EF0EF002D882EF0EF00500FA6ECB
:101CF6000150FD6E0250FE6EFF6AFA50120012008D
:101D06009E900A50CF6E09C0CEFF07500810D8B477
:101D16008FEF0EF091EF0EF09DEF0EF002D89DEFD3
:101D26000EF00500FA6E0750FD6E0850FE6EFF6A53
:101D3600FA5012001200F2940E50D76E0DC0D6FF64
:101D46000B500C10D8B4AAEF0EF0ACEF0EF0B8EFB3
:101D56000EF002D8B8EF0EF00500FA6E0B50FD6ECD
:101D66000C50FE6EFF6AFA50120012009E9227C0B7
:101D7600CCFF05500610D8B4C3EF0EF0C5EF0EF039
:101D8600D1EF0EF002D8D1EF0EF00500FA6E055035
:101D9600FD6E0650FE6EFF6AFA5012001200890FA1
:101DA6008A0F8B0F8C0F8D0F920F930F940F950F39
:101DB600960F01010101141E00DC0B09F01D00DF66
:051DC6001B1B130B03C1
:101DCC00292A040E2918D8A4EEEF0EF0F0EF0EF02D
:101DDC00F7EF0EF0580E626E2FEC0DF0286E000E21
:101DEC00296E12002A2A0A0E2A18D8A400EF0FF026
:101DFC0002EF0FF009EF0FF0590E626E2FEC0DF0A1
:101E0C00286E000E2A6E12002B2A020E2B18D8A454
:101E1C0012EF0FF014EF0FF01BEF0FF05A0E626E73
:101E2C002FEC0DF0286E000E2B6E12002C2A040ED7
:101E3C002C18D8A424EF0FF026EF0FF02DEF0FF095
:101E4C005B0E626E2FEC0DF0286E000E2C6E1200E5
:101E5C005C6EF2905C50D8A436EF0FF038EF0FF0B8
:101E6C003AEF0FF03AEF0FF012005C6EF2905C500C
:101E7C00D8A443EF0FF045EF0FF047EF0FF047EF0B
:101E8C000FF012005C6EF2905C50D8A450EF0FF083
:101E9C0052EF0FF054EF0FF054EF0FF012005C6E96
:101EAC00F2905C50D8A45DEF0FF05FEF0FF061EF94
:101EBC000FF061EF0FF01200800F810F820F830F74
:0F1ECC00840F381E00DC0B0103CC1D00DC0B095A
:101EDC0026EC0EF070EF0FF007EF00F0F09212000E
:0C1EEC00F0901200F29212009E9C120076
:020000040020DA
:08000000FFFFFFFFFFFFFFFF00
:020000040030CA
:0E000000FF02091EFF8181FF0FC00FE00F40BD
:00000001FF
